S0100000646163426F6E75732E73726563E5
S11300000C947A000C9499000C9499000C94990027
S11300100C9499000C9499000C9499000C949900F8
S11300200C94E1000C94F5010C9499000C94990043
S11300300C9499000C9499000C9499000C949900D8
S11300400C9499000C9499000C9499000C949900C8
S11300500C9499000C9499000C9499000C949900B8
S11300600C9499000C9499000C9499000C949900A8
S11300700C9499000C9499000C9499000C94990098
S11300800C9499000C9499000C9499000C94990088
S11300900C9499000C9499000C9499000C94990078
S11300A00C9499000C9499000C9499000C94990068
S11300B00C9499000C949D010C9499000C94990053
S11300C00C9499000C9499000C9499000C94990048
S11300D00C9499000C9499000C9499000C94990038
S11300E00C9499000C9499000C9499000C94990028
S11300F00C94990011241FBECFEFCDBFDFE7DEBF04
S113010012E4A0E0B0E4E8E3F5E000E00BBF02C0D5
S113011007900D92A631B107D9F722E4A6E1B2E423
S113012001C01D92A931B207E1F70E9430020C947C
S11301309A020C940000E0E0F4E084E0828381E021
S1130140828B98E09283838B90E19283848B90E2FC
S11301509283858B90E49283868B20E82283878B1D
S1130160E0E2F4E08283808B90936104089581E45B
S11301708093A00685E08093B2000895CF93DF9327
S1130180C0E0DAE081E088838A87209100403091E2
S113019001400024369527950794369527950794B2
S11301A0322F202D40E050E060E079E08DE390E0D4
S11301B00E947802215031092EA33FA3DF91CF91F1
S11301C008951F920F920FB60F9211240BB60F923F
S11301D02F933F934F935F936F937F938F939F934B
S11301E0AF93BF93EF93FF938091090482FF10C0F4
S11301F080910040909101408238910519F481E08A
S113020090E002C082E890E0809300409093014027
S11302108091090483FF10C08091004090910140B7
S11302208239910519F481E090E002C082E990E0FE
S113023080930040909301408091090484FF10C092
S11302408091004090910140843A910519F481E035
S113025090E002C084EA90E08093004090930140D3
S11302608091090485FF10C0809100409091014065
S11302708E3A910519F481E090E002C08EEA90E094
S113028080930040909301408091090486FF10C040
S11302908091004090910140833C910519F481E0E4
S11302A090E002C083EC90E0809300409093014082
S11302B080910904882384F4809100409091014046
S11302C08C3D910519F481E090E002C08CED90E042
S11302D08093004090930140209100403091014070
S11302E00024369527950794369527950794322F41
S11302F0202D40E050E060E079E08DE390E00E9442
S11303007802215031092093260A3093270A8CEF72
S113031080930904FF91EF91BF91AF919F918F91C9
S11303207F916F915F914F913F912F910F900BBEF1
S11303300F900FBE0F901F9018951F920F920FB63B
S11303400F9211240BB60F922F933F934F935F9309
S11303506F937F938F939F93AF93BF93EF93FF9389
S11303608091290480FF10C0809100409091014049
S1130370863F910519F481E090E002C086EF90E099
S113038080930040909301402091004030910140BF
S11303900024369527950794369527950794322F90
S11303A0202D40E050E060E079E08DE390E00E9491
S11303B07802215031092093260A3093270A81E0DC
S11303C080932904FF91EF91BF91AF919F918F91F9
S11303D07F916F915F914F913F912F910F900BBE41
S11303E00F900FBE0F901F9018951F920F920FB68B
S11303F00F9211240BB60F922F933F938F93EF9389
S1130400FF9380911642803410F01092164280912E
S11304101642E82FF0E0EE0FFF1FEE5FFF4B208146
S113042031810024369527950794369527950794AE
S1130430322F202D2093A2063093A3068F5F809342
S1130440164281E080930B0AFF91EF918F913F91C7
S11304502F910F900BBE0F900FBE0F901F90189509
S11304600E949B000E94B7000E94BE007894C0E0E6
S11304703CC08C2F90E0FC013296EE0FFF1FEE572C
S1130480FF4B208131812093004030930140FC01D7
S1130490EA59FF4FEE0FFF1FEE57FF4B808191810A
S11304A08093174290931842002436952795079419
S11304B0369527950794322F202D40E050E060E0D8
S11304C079E08DE390E00E94780221503109209375
S11304D0260A3093270A2FE38BE694E021508040CC
S11304E09040E1F700C00000CF5FC43610F2BFCFE8
S11304F0A1E21A2EAA1BBB1BFD010DC0AA1FBB1F24
S1130500EE1FFF1FA217B307E407F50720F0A21B95
S1130510B30BE40BF50B661F771F881F991F1A9402
S113052069F760957095809590959B01AC01BD012C
S10B0530CF010895F894FFCFF8
S113053801000002320263029402C302F1021C03A6
S1130548440369038B03A903C303D803E903F5032D
S1130558FD03FF03FD03F503E903D803C303A9035C
S11305688B03690344031C03F102C302940263026C
S113057832020002CD019C016B013C010E01E30033
S1130588BB009600740056003C00270016000A00C1
S11305980200000002000A00160027003C00560072
S11305A874009600BB00E3000E013C016B019C0142
S11305B8CD014A01640005010100C3000100A40043
S11305C80100DC00F600E900DC000100C300490179
S11305D88701B8015D018701010049010501250171
S11305E8F600010005010100C3000100A400010098
S11305F8DC00F600E900DC000100C30049018701C2
S1130608B8015D018701490105012501F6000100D2
S1130618820001005D0171015D013701010049019A
S11306280100CF00DC0005010100DC000501250103
S113063882000100870171015D0137010100490150
S1130648CF00DC0005010100DC00050125010100E3
S1130658370101002501010005010100C300C300A1
S11306680100C300000000000000000000000000BA
S1130678000000000000000000000000000002006C
S11306880100020001000200010002000200010052
S11306980100010002000100010002000100010044
S11306A80100020001000100010002000200010033
S11306B80200010002000100020002000100010022
S11306C80100020001000100020001000100020013
S11306D80100010001000200010001000100010005
S11306E801000100010001000100010001000100F6
S11306F801000100010001000100010001000100E6
S113070801000100010001000100010001000100D5
S113071801000100010002000100020001000200C2
S113072801000200010001000100010000000000B6
S113073800000000000000000000000000000000AD
S1090748000000000000A7
S9030000FC
