S00B00006164632E73726563F1
S11300000C947A000C9499000C9499000C94990027
S11300100C9499000C9499000C9499000C949900F8
S11300200C9499000C9499000C9499000C949900E8
S11300300C9499000C9499000C9499000C949900D8
S11300400C9499000C9499000C9499000C949900C8
S11300500C9499000C9499000C9499000C949900B8
S11300600C9499000C9499000C9499000C949900A8
S11300700C9499000C9499000C94AF000C94990082
S11300800C9499000C9499000C9499000C94990088
S11300900C9499000C9499000C9499000C94990078
S11300A00C9499000C9499000C9499000C94990068
S11300B00C9499000C9499000C9499000C94990058
S11300C00C9499000C9499000C9499000C94990048
S11300D00C9499000C9499000C9499000C94990038
S11300E00C9499000C9499000C9499000C94990028
S11300F00C94990011241FBECFEFCDBFDFE7DEBF04
S113010010E4A0E0B0E4E6EDF1E000E00BBF02C0D3
S113011007900D92A030B107D9F720E4A0E0B0E435
S113012001C01D92A030B207E1F70E94DE000C94DA
S1130130E9000C940000E0E4F4E082E0848B858B19
S1130140868B878B78940895E0E6F8E082E896E061
S11301508087918783E0878380E4868308951F9254
S11301600F920FB60F9211248F938091640885FF2C
S1130170FCCF8091490484FF03C08AE6809362081F
S11301808091490485FF03C08BE6809362088091C7
S1130190490486FF03C08CE6809362088091490479
S11301A088231CF48DE68093620880EF80934904D1
S11301B08F910F900FBE0F901F9018950E949B0077
S11301C00E94A400E0E2F4E081E0818382E0828383
S10901D0FFCFF894FFCFFD
S9030000FC
