S00E00004C43444170702E7372656322
S11300000C947A000C9499000C9499000C94990027
S11300100C9499000C9499000C9499000C949900F8
S11300200C9499000C9499000C9499000C949900E8
S11300300C9499000C9499000C9499000C949900D8
S11300400C9499000C9499000C9499000C949900C8
S11300500C9499000C9499000C9499000C949900B8
S11300600C9499000C9499000C9499000C949900A8
S11300700C9499000C9499000C9499000C94990098
S11300800C9499000C9499000C9499000C94990088
S11300900C9499000C9499000C9499000C94990078
S11300A00C9499000C9499000C9499000C94990068
S11300B00C9499000C9499000C9499000C94990058
S11300C00C9499000C9499000C9499000C94990048
S11300D00C9499000C9499000C9499000C94990038
S11300E00C9499000C9499000C9499000C94990028
S11300F00C94990011241FBECFEFCDBFDFE7DEBF04
S113010010E4A0E0B0E4ECEDF8E000E00BBF02C0C6
S113011007900D92A230B107D9F720E4A2E0B0E431
S113012001C01D92A039B207E1F70E9448030C9464
S11301306C040C9400008091050985FD0DC080912C
S1130140050982FD09C08091050983FD05C08091E0
S113015005098370833079F708958091050982FF3A
S113016004C083E08093040908958091050983FF06
S113017005C083E08093040984E008958091050913
S113018082FF05C083E08093040981E00895809193
S113019005098370833021F48093040982E0089573
S11301A080E00895E0E0F9E084E0808381E08283E8
S11301B09DEF95839FE0968383830895CF939091D9
S11301C0050990FF24C0C62F880F809307090E9459
S11301D09B000E94AD0080930340809103408823DC
S11301E019F08091034014C0C09308090E949B0039
S11301F00E94AD008093034080910340882319F04E
S11302008091034005C093E09093040901C082E00B
S1130210CF910895FF920F931F93CF93DF93F22E04
S1130220C82FC07F90E1899F80011124611102C011
S1130230D0E001C0D1E04111DE5FCD0F60910240FA
S11302406C0F6C5F87E20E94DE00811129C088E296
S11302508A95F1F7609102406C0F87E20E94DE00FC
S1130260811120C091E39A95F1F70000F1101DC0AF
S11302700D0F60910240600F6C5F87E20E94DE0008
S1130280811112C088E28A95F1F7D0910240602F63
S11302906D0F87E20E94DE00882339F081E005C0FB
S11302A081E003C081E001C081E0DF91CF911F9123
S11302B00F91FF900895882379F020E040E060E0FA
S11302C08CE00E940A0180930340809103408823BC
S11302D091F080910340089520E040E060E088E0E0
S11302E00E940A018093034080910340882319F0FF
S11302F080910340089581E38A95F1F7000080E03E
S113030008958823A1F08091024088608093024080
S113031020E040E060E08CE00E940A01809303400A
S1130320809103408823B9F080910340089580911F
S11303300240877F8093024020E040E060E088E054
S11303400E940A018093034080910340882319F09E
S113035080910340089581E38A95F1F7000080E0DD
S1130360089520E040E060E081E00E940A018111EC
S113037007C0EFE3F6E03197F1F700C000000895FD
S113038081E0089520E040E061E00E940A018111CB
S113039005C096E39A95F1F700C0089581E00895A9
S11303A020E040E060E086E00E940A01811105C07F
S11303B091E39A95F1F70000089581E008950E9471
S11303C0D20060E087E20E94DE00809303408091C7
S11303D00340882319F08091034008958FE493EC3F
S11303E00197F1F700C0000021E040E060E080E305
S11303F00E940A018093034080910340882319F0EE
S113040080910340089587E893E10197F1F700C0D4
S1130410000021E040E060E080E30E940A01809354
S1130420034080910340882319F08091034008958C
S113043092E99A95F1F700C021E040E060E080E3A2
S11304400E940A018093034080910340882319F09D
S113045080910340089582E48A95F1F700C021E079
S113046040E060E080E20E940A01809303408091B2
S11304700340882319F080910340089591E39A95ED
S1130480F1F7000020E040E060E088E20E940A0109
S11304908093034080910340882319F080910340A6
S11304A0089581E38A95F1F7000081E00E945B01E1
S11304B08093034080910340882319F08091034086
S11304C008950E94B10180930340809103408823E2
S11304D019F08091034008950E94D0018093034055
S11304E080910340882319F080910340089581E0AE
S11304F00E94810180930340809103408111809187
S11305000340089520910A4030910B402132310577
S1130510A0F4A9014F5F5F4F40930A4050930B40F2
S1130520220F331F220F331FF901E45FFF4BA0E0BA
S1130530B0E080839183A283B383089580910A40BD
S113054090910B40019780930A4090930B40880F41
S1130550991F880F991FFC01E45FFF4B6081718133
S1130560828193810895CF93DF9300D0CDB7DEB716
S113057040E050E010C019821A8206C029813A81F5
S11305802F5F3F4F29833A8329813A81283E3340A4
S1130590A8F34F5F5F4F4817590768F30F900F9008
S11305A0DF91CF9108950F931F93CF93DF9361153C
S11305B07105810520E8920761F581E0809304408C
S11305C088E090E00E94820284E090E00E9482022F
S11305D086E090E00E94820283E090E00E94820222
S11305E088E090E00E94820284E090E00E9482020F
S11305F087E090E00E94820284E090E00E94820200
S113060081E090E00E94820282E090E00E948202F7
S113061025C099235CF421E02093044090958095B3
S1130620709561957F4F8F4F9F4F02C01092044089
S11306302AE030E040E050E00E942B04022F132F08
S1130640D42FC52FCB010E948202602F712F8D2FD2
S11306509C2F161617061806190654F3DF91CF912E
S11306601F910F91089580910440882351F08DE2E9
S11306700E94C20106C00E949E0280E3860F0E946F
S1130680C20180910A4090910B40892BA1F70895F3
S11306900E94DF010E94B10180E30E94C2018091A7
S11306A005408111D0C08091480484FF2FC08091FF
S11306B00040909101400E94B3028091480484FF5D
S11306C0EECF8091064090910740A0910840B091F0
S11306D009400196A11DB11D8093064090930740E7
S11306E0A0930840B09309400E94B1016091064074
S11306F07091074080910840909109400E94D30274
S11307000E94330381E080930540C9CF809148045F
S113071085FF2FC080910040909101400E94B30258
S11307208091480485FFBBCF80910640909107409B
S1130730A0910840B09109400197A109B1098093A3
S1130740064090930740A0930840B09309400E944C
S1130750B1016091064070910740809108409091EA
S113076009400E94D3020E94330381E08093054034
S113077096CF8091480486FF30C0809100409091CC
S113078001400E94B3028091480486FF88CF809183
S1130790064090910740A0910840B0910940880F0D
S11307A0991FAA1FBB1F8093064090930740A093F4
S11307B00840B09309400E94B101609106407091D5
S11307C0074080910840909109400E94D3020E9402
S11307D0330381E08093054062CF809148048823ED
S11307E00CF05DCF80910040909101400E94B302D3
S11307F08091480488230CF052CF80910640909158
S11308000740A0910840B0910940B595A7959795E8
S113081087958093064090930740A0930840B09337
S113082009400E94B1016091064070910740809197
S11308300840909109400E94D3020E94330381E052
S1130840809305402CCF80914804807F09F027CF06
S11308501092054024CF052E97FB1EF400940E94AD
S1130860420457FD07D00E944A0407FC03D04EF40B
S11308700C94420450954095309521953F4F4F4F2D
S11308805F4F089590958095709561957F4F8F4F38
S11308909F4F0895A1E21A2EAA1BBB1BFD010DC098
S11308A0AA1FBB1FEE1FFF1FA217B307E407F5071C
S11308B020F0A21BB30BE40BF50B661F771F881FF8
S11308C0991F1A9469F760957095809590959B018E
S10F08D0AC01BD01CF010895F894FFCFE6
S10508DC0A000C
S9030000FC
