:100000000C947A000C9499000C9499000C9499002B
:100010000C9499000C9499000C9499000C949900FC
:100020000C9499000C9499000C9499000C949900EC
:100030000C9499000C9499000C9499000C949900DC
:100040000C9499000C9499000C9499000C949900CC
:100050000C9499000C9499000C9499000C949900BC
:100060000C9499000C9499000C9499000C949900AC
:100070000C9499000C9499000C9499000C9499009C
:100080000C9499000C9499000C9499000C9499008C
:100090000C9499000C9499000C9499000C9499007C
:1000A0000C9499000C9499000C9499000C9499006C
:1000B0000C9499000C9499000C9499000C9499005C
:1000C0000C9499000C9499000C9499000C9499004C
:1000D0000C9499000C9499000C9499000C9499003C
:1000E0000C9499000C9499000C9499000C9499002C
:1000F0000C94990011241FBECFEFCDBFDFE7DEBF08
:1001000010E4A0E0B0E4E8ECF3E000E00BBF02C0D4
:1001100007900D92A630B107D9F720E4A6E0B0E42D
:1001200001C01D92A730B207E1F70E9403010C94B1
:10013000E2010C940000CF93DF9300D0CDB7DEB77F
:1001400040E050E010C019821A8206C029813A812D
:100150002F5F3F4F29833A8329813A81283E3340DC
:10016000A8F34F5F5F4F4817590768F30F900F9040
:10017000DF91CF91089580EF80936104089580EF1F
:1001800080936604089580936504089590916404B3
:10019000907F81E009F080E008958130910589F039
:1001A0001CF4892B39F008958230910589F003976A
:1001B000B1F0089580E10E94C30080E18093064081
:1001C000089580E20E94C30080E280930640089573
:1001D00080E40E94C30080E480930640089580E894
:1001E0000E94C30080E88093064008950E94700139
:1001F00083709078992324F401978C6F9F6F0196F8
:100200000E94CD0008950E94BB000E94C60081118B
:100210000E94F60090914804809106408923A9F33A
:1002200080910440909105400E949B009091480469
:1002300080910640892349F30E94BF0090914804B1
:10024000809106408923D1F7E0CF8F929F92AF92A1
:10025000BF92CF92DF92EF92FF92CF93DF93EC01A8
:10026000688179818A819B8161157105810591057C
:1002700021F464E279ED8BE597E02DE133EF41E085
:1002800050E00E947F0149015A019B01AC01A7EA9D
:10029000B1E40E949E016B017C01ACEEB4EFA501BC
:1002A00094010E94AC01DC01CB018C0D9D1DAE1DA3
:1002B000BF1DB7FF03C00197A109B0488883998388
:1002C000AA83BB839F77DF91CF91FF90EF90DF9060
:1002D000CF90BF90AF909F908F9008950C94250180
:1002E00080E090E40C942501A0E0B0E08093004011
:1002F00090930140A0930240B09303400895052ECF
:1003000097FB1EF400940E94960157FD07D00E94AF
:10031000B10107FC03D04EF40C9496015095409522
:10032000309521953F4F4F4F5F4F089590958095A1
:10033000709561957F4F8F4F9F4F08950E94D30115
:10034000A59F900DB49F900DA49F800D911D112429
:100350000895B7FF0C949E010E949E01821B930B8F
:100360000895A1E21A2EAA1BBB1BFD010DC0AA1FF6
:10037000BB1FEE1FFF1FA217B307E407F50720F00E
:10038000A21BB30BE40BF50B661F771F881F991F89
:100390001A9469F760957095809590959B01AC01D2
:1003A000BD01CF010895A29FB001B39FC001A39FDB
:1003B000700D811D1124911DB29F700D811D11249E
:0803C000911D0895F894FFCF90
:0603C800010000000A0024
:00000001FF
