S00B00006932632E737265631B
S11300000C947A000C9499000C9499000C94990027
S11300100C9499000C9499000C9499000C949900F8
S11300200C9499000C9499000C9499000C949900E8
S11300300C9499000C9499000C9499000C949900D8
S11300400C9499000C9499000C9499000C949900C8
S11300500C9499000C9499000C9499000C949900B8
S11300600C9499000C9499000C9499000C949900A8
S11300700C9499000C9499000C9499000C94990098
S11300800C9499000C9499000C9499000C94990088
S11300900C9499000C9499000C9499000C94990078
S11300A00C9499000C9499000C9499000C94990068
S11300B00C9499000C9499000C9499000C94990058
S11300C00C9499000C9499000C9499000C94990048
S11300D00C9499000C9499000C9499000C94990038
S11300E00C9499000C9499000C9499000C94990028
S11300F00C94990011241FBECFEFCDBFDFE7DEBF04
S113010010E4A0E0B0E4EEEFFCE000E00BBF02C0BE
S113011007900D92AE31B107D9F720E4AEE1B0E417
S113012001C01D92A832B207E1F70E943C030C946F
S11301307D060C9400008091050985FD0DC0809119
S1130140050982FD09C08091050983FD05C08091E0
S113015005098370833079F708958091050982FF3A
S113016004C083E08093040908958091050983FF06
S113017005C083E08093040984E008958091050913
S113018082FF05C083E08093040981E00895809193
S113019005098370833021F48093040982E0089573
S11301A080E00895E0E0F9E084E0808381E08283E8
S11301B09DEF95839FE0968383830895EF92FF924A
S11301C00F931F93CF93DF939091050990FF25C060
S11301D0042F7B01880F809307090E949B000E94D3
S11301E0AD0080E013C011E0180FF701E80FF11D16
S11301F08081C0E0D9E088870E949B008D8184FFC4
S113020004C083E08093040909C0812F801758F348
S113021083E08093040980E001C082E0DF91CF9104
S11302201F910F91FF90EF900895CF93909105093E
S113023090FF24C0C62F880F809307090E949B005B
S11302400E94AD0080931F4080911F40882319F0C5
S113025080911F4014C0C09308090E949B000E9413
S1130260AD0080931F4080911F40882319F0809136
S11302701F4005C093E09093040901C082E0CF9130
S11302800895FF920F931F93CF93DF9390910509E5
S113029090FF2EC0D42F8B01880F8F5F80930709A6
S11302A00E949B000E94AD0080931F40F0901F406D
S11302B0FF2019F0F0901F401EC080E280930509D2
S11302C0C0E010C00E949B0081E08C0FF801EC0F8D
S11302D0F11D909108099083D81719F092E090933A
S11302E00409C82FCD1770F387E08093040903C075
S11302F06894FF24F1F88F2DDF91CF911F910F9116
S1130300FF900895FF920F931F93CF93DF93F22EE4
S1130310C82FC07F90E1899F80011124611102C020
S1130320D0E001C0D1E04111DE5FCD0F60911E40ED
S11303306C0F6C5F87E20E941501811129C088E26D
S11303408A95F1F760911E406C0F87E20E941501B7
S1130350811120C091E39A95F1F70000F1101DC0BE
S11303600D0F60911E40600F6C5F87E20E941501C3
S1130370811112C088E28A95F1F7D0911E40602F56
S11303806D0F87E20E941501882339F081E005C0D2
S113039081E003C081E001C081E0DF91CF911F9132
S11303A00F91FF900895882379F020E040E060E009
S11303B08CE00E94820180931F4080911F4088231B
S11303C091F080911F40089520E040E060E088E0D3
S11303D00E94820180931F4080911F40882319F05E
S11303E080911F40089581E38A95F1F7000080E031
S11303F008958823A1F080911E40886080931E4058
S113040020E040E060E08CE00E94820180931F4085
S113041080911F408823B9F080911F4008958091F6
S11304201E40877F80931E4020E040E060E088E02B
S11304300E94820180931F4080911F40882319F0FD
S113044080911F40089581E38A95F1F7000080E0D0
S1130450089520E040E060E081E00E948201811183
S113046007C0EFE3F6E03197F1F700C0000008950C
S113047081E00895803108F08FE0623008F061E097
S1130480E62FF0E0E050F04C9081890F20E040E04E
S113049060E080580E948201811105C091E39A9521
S11304A0F1F70000089581E00895CF93DF93EC0104
S11304B00CC020E040E061E00E948201811109C08B
S11304C0219686E38A95F1F700C088818111F1CFE6
S11304D001C081E0DF91CF91089520E040E060E029
S11304E086E00E948201811105C091E39A95F1F79B
S11304F00000089581E008950E94D20060E087E240
S11305000E94150180931F4080911F40882319F099
S113051080911F4008958FE493EC0197F1F700C098
S1130520000021E040E060E080E30E9482018093CB
S11305301F4080911F40882319F080911F40089527
S113054087E893E10197F1F700C0000021E040E063
S113055060E080E30E94820180931F4080911F40ED
S1130560882319F080911F40089592E99A95F1F734
S113057000C021E040E060E080E30E9482018093BB
S11305801F4080911F40882319F080911F400895D7
S113059082E48A95F1F700C021E040E060E080E267
S11305A00E94820180931F4080911F40882319F08C
S11305B080911F40089591E39A95F1F7000020E09F
S11305C040E060E088E20E94820180931F408091B5
S11305D01F40882319F080911F40089581E38A9574
S11305E0F1F7000081E00E94D30180931F408091C5
S11305F01F40882319F080911F4008950E9429020A
S113060080931F4080911F40882319F080911F40E0
S113061008950E946D0280931F4080911F4088239B
S113062019F080911F40089581E00E94F9018093A0
S11306301F4080911F40811180911F400895CF93E6
S1130640DF9300D0CDB7DEB719828CE08A8342E015
S1130650BE016F5F7F4F89E20E94DE002FE788E3CF
S113066091E0215080409040E1F700C000000F90DD
S11306700F90DF91CF910895CF93DF93CDB7DEB77D
S11306806097CDBFDEBF0E947C020E9429020E94B7
S11306901F030E94290248E060E270E489E20E949C
S11306A04101E0E2F0E4C180D12CDC2CCC24808137
S11306B0C82AA380B12CBA2CAA248281A82A058135
S11306C010E0102F00278481082BE780F12CFE2CEA
S11306D0EE248681E82A60E080E00E943A02BF921C
S11306E0AF92DF92CF9282E090E49F938F93CE01FA
S11306F001966C019F938F930E94A003C6010E94F0
S1130700550261E080E00E943A02FF92EF921F934B
S11307100F9380E190E49F938F93DF92CF920E9496
S1130720A003C6010E9455029FEF28E08DE391507B
S113073020408040E1F700C00000CDBFDEBFA9CF5C
S11307400F931F93CF93DF93CDB7DEB72E97CDBF13
S1130750DEBF0D891E8986E08C8309831A838FEF9F
S11307609FE78D839E83AE01475E5F4F6F89788DCF
S1130770CE0101960E94C903EF81F885E00FF11FB5
S113078010822E96CDBFDEBFDF91CF911F910F91C6
S113079008952F923F924F925F926F927F928F9221
S11307A09F92AF92BF92CF92DF92EF92FF920F93FC
S11307B01F93CF93DF93CDB7DEB72B97CDBFDEBFAB
S11307C06C017B018A01FC0116821782838181FFFF
S11307D0CCC1CE0101963C01F6019381F70193FD52
S11307E0859193FF81917F01882309F4BAC18532F1
S11307F039F493FD859193FF81917F01853229F42A
S1130800B60190E00E94E305E7CF912C212C312C16
S1130810FFE1F315D8F08B3279F038F4803279F0B7
S11308208332A1F4232D20611DC08D3261F0803309
S113083069F4232D216016C0832D8260382EE32DA8
S1130840E4603E2E2AC0F32DF8601DC037FC2DC095
S113085020ED280F2A3040F08E32B9F436FC81C1E5
S1130860232D2064322E19C036FE06C08AE0989EDD
S1130870200D1124922E11C0EAE02E9E200D112489
S1130880222EF32DF0623F2E08C08C3621F4832DE6
S11308908068382E02C0883641F4F70193FD8591B3
S11308A093FF81917F018111B3CF982F9F7D955440
S11308B0933028F40C5F1F4F9FE399830DC0833658
S11308C031F0833771F0833509F059C021C0F80144
S11308D0808189830E5F1F4F88248394912C530158
S11308E013C02801F2E04F0E511CF801A080B18022
S11308F036FE03C0692D70E002C06FEF7FEFC501C3
S11309000E94D8054C018201F32DFF773F2E16C0BB
S1130910280122E0420E511CF801A080B18036FE6D
S113092003C0692D70E002C06FEF7FEFC5010E9424
S1130930CD054C01F32DF0683F2E820133FC1BC022
S1130940822D90E088169906B0F4B60180E290E01A
S11309500E94E3052A94F4CFF50137FC859137FE14
S113096081915F01B60190E00E94E30521102A9471
S113097021E0821A91088114910471F7E8C0843649
S113098011F0893641F5F80137FE07C060817181A5
S1130990828193810C5F1F4F08C060817181072E93
S11309A0000C880B990B0E5F1F4FF32DFF763F2E23
S11309B097FF09C090958095709561957F4F8F4FF3
S11309C09F4FF0683F2E2AE030E0A3010E941F06EB
S11309D0882E861845C0853731F4232D2F7EB22EFC
S11309E02AE030E025C0932D997FB92E8F36C1F0CF
S11309F018F4883579F0B5C0803719F0883721F0BC
S1130A00B0C0E92FE061BE2EB4FE0DC0FB2DF46032
S1130A10BF2E09C034FE0AC0292F2660B22E06C09C
S1130A2028E030E005C020E130E002C020E132E0FF
S1130A30F801B7FE07C060817181828193810C5FE8
S1130A401F4F06C06081718180E090E00E5F1F4FF0
S1130A50A3010E941F06882E8618FB2DFF773F2EC8
S1130A6036FE0DC0232D2E7FA22E891458F434FE99
S1130A700BC032FC09C0832D8E7EA82E05C0B82C75
S1130A80A32C03C0B82C01C0B92CA4FE0FC0FE01D6
S1130A90E80DF11D8081803321F49A2D997EA92ED1
S1130AA009C0A2FE06C0B394B39404C08A2D86780C
S1130AB009F0B394A3FC11C0A0FE06C0B21488F4DC
S1130AC0280C922C9B180EC0B21460F4B60180E27C
S1130AD090E00E94E305B394F7CFB21418F42B18F6
S1130AE002C0982C212CA4FE10C0B60180E390E033
S1130AF00E94E305A2FE17C0A1FC03C088E790E0B2
S1130B0002C088E590E0B6010CC08A2D867859F0C1
S1130B10A1FE02C08BE201C080E2A7FC8DE2B60117
S1130B2090E00E94E305891438F4B60180E390E074
S1130B300E94E3059A94F7CF8A94F301E80DF11D1E
S1130B408081B60190E00E94E3058110F5CF222058
S1130B5009F442CEB60180E290E00E94E3052A94B3
S1130B60F6CFF6018681978102C08FEF9FEF2B9617
S1130B70CDBFDEBFDF91CF911F910F91FF90EF901A
S1130B80DF90CF90BF90AF909F908F907F906F90A9
S1130B905F904F903F902F900895FC010590615015
S1130BA070400110D8F7809590958E0F9F1F08957F
S1130BB0FC016150704001900110D8F78095909528
S1130BC08E0F9F1F08950F931F93CF93DF93FB0105
S1130BD0238121FD03C08FEF9FEF2CC022FF16C09D
S1130BE046815781248135814217530744F4A081FB
S1130BF0B1819D012F5F3F4F208331838C932681E8
S1130C0037812F5F3F4F2683378314C08B01EC015C
S1130C10FB010084F185E02D0995892BE1F6D801CB
S1130C2016968D919C911797019616968D939C9389
S1130C301797CE01DF91CF911F910F910895FA017B
S1130C40AA27283051F1203181F1E8946F936E7F07
S1130C506E5F7F4F8F4F9F4FAF4FB1E03ED0B4E0F8
S1130C603CD0670F781F891F9A1FA11D680F791F39
S1130C708A1F911DA11D6A0F711D811D911DA11D4A
S1130C8020D009F468943F912AE0269F112430195A
S1130C90305D3193DEF6CF010895462F4770405DF5
S1130CA04193B3E00FD0C9F7F6CF462F4F70405DA4
S1130CB04A3318F0495D31FD4052419302D0A9F7FF
S1130CC0EACFB4E0A6959795879577956795BA95F9
S1130CD0C9F700976105710508959B01AC010A2EBF
S1130CE006945795479537952795BA95C9F7620F96
S1110CF0731F841F951FA01D0895F894FFCF55
S1130CFE0040433A202564207C20523A202564008B
S1110D0E473A202564207C20423A20256400C8
S9030000FC
