S0180000496E746572757074416E6454696D65722E737265639D
S11300000C947A000C9499000C9499000C94990027
S11300100C9499000C9499000C9499000C949900F8
S11300200C9499000C94B9000C9499000C949900C8
S11300300C9499000C9499000C9499000C949900D8
S11300400C9499000C9499000C9499000C949900C8
S11300500C9499000C9499000C9499000C949900B8
S11300600C9499000C9499000C9499000C949900A8
S11300700C9499000C9499000C94F9000C94990038
S11300800C9499000C9499000C9499000C94990088
S11300900C9499000C9499000C9499000C94990078
S11300A00C9499000C9499000C9499000C94990068
S11300B00C9499000C9499000C9499000C94990058
S11300C00C9499000C9499000C9499000C94990048
S11300D00C9499000C9499000C9499000C94990038
S11300E00C9499000C9499000C9499000C94990028
S11300F00C94990011241FBECFEFCDBFDFE7DEBF04
S113010010E4A0E0B0E4E8EDF2E000E00BBF02C0D0
S113011007900D92A230B107D9F720E4A2E0B0E431
S113012001C01D92A330B207E1F70E9458010C945C
S11301306A010C94000087E08093860408950E946D
S11301409B0082E08093850408950E949B0083E0D5
S11301508093850408950E949B0081E08093850428
S11301600895E0E0FAE086A397A38081816080830C
S113017008951F920F920FB60F9211240BB60F928F
S11301802F933F934F935F936F937F938F939F939B
S1130190AF93BF93EF93FF9380910040813019F0A8
S11301A0833039F00AC00E94AB0082E080930040A3
S11301B004C00E949F001092004010920240E0E0B0
S11301C0FAE080818E7F808381E08387FF91EF91C5
S11301D0BF91AF919F918F917F916F915F914F915B
S11301E03F912F910F900BBE0F900FBE0F901F9059
S11301F018951F920F920FB60F9211240BB60F92FF
S11302002F933F934F935F936F937F938F939F931A
S1130210AF93BF93EF93FF938FE39CE90197F1F7BB
S113022000C0000080910240882321F080E3809385
S113023049042BC08091490484FF11C0809100407F
S1130240823001F50E94A50083E08093004081E0A4
S11302508093024084E294EF0E94B10013C0809125
S1130260490485FF0FC08091004081110BC00E949A
S1130270A50081E0809300408093024084E294EFE3
S11302800E94B10080E380934904FF91EF91BF91F4
S1130290AF919F918F917F916F915F914F913F911A
S11302A02F910F900BBE0F900FBE0F901F901895BB
S11302B0E0E4F4E082E0848B858BE0E0FAE08AE01D
S11302C0808381E0828787E0809381040E94AB0071
S10B02D07894FFCFF894FFCFEE
S10502D802001E
S9030000FC
