:100000000C947A000C948C000C948C000C948C0052
:100010000C948C000C948C000C948C000C948C0030
:100020000C948C000C94BC000C948C000C94AB00D1
:100030000C948C000C948C000C948C000C948C0010
:100040000C948C000C948C000C948C000C948C0000
:100050000C948C000C948C000C948C000C948C00F0
:100060000C948C000C948C000C948C000C948C00E0
:100070000C948C000C948C000C948C000C948C00D0
:100080000C948C000C948C000C948C000C948C00C0
:100090000C948C000C948C000C948C000C948C00B0
:1000A0000C948C000C948C000C948C000C948C00A0
:1000B0000C948C000C948C000C948C000C948C0090
:1000C0000C948C000C948C000C948C000C948C0080
:1000D0000C948C000C948C000C948C000C948C0070
:1000E0000C948C000C948C000C948C000C948C0060
:1000F0000C948C0011241FBECFEFCDBFDFE7DEBF15
:1001000020E4A0E0B0E401C01D92A230B207E1F704
:100110000E942C010C944C010C94000080E180930F
:10012000A1040895E0E0FAE083E181838091280A48
:100130009091290A8160828788E893E186A397A33A
:100140008AEF90E080A791A789E08083089587E0F7
:100150008093660408951F920F920FB60F92112498
:100160008F9380E18093A60480930B0A8F910F9068
:100170000FBE0F901F9018951F920F920FB60F92FF
:1001800011240BB60F922F933F934F935F936F936E
:100190007F938F939F93AF93BF93EF93FF930E94AF
:1001A000A70040910040509101404F5F5F4F9A017E
:1001B000ABEABAEA0E943D01969587959C01220F11
:1001C000331F820F931F9A01281B390B2093004085
:1001D000309301408091004090910140892B51F46F
:1001E0008AEF90E08093280A9093290A81E0809317
:1001F000650419C08091004090910140019751F42D
:1002000084EF91E08093280A9093290A82E08093FA
:10021000650409C087E791E08093280A9093290A32
:1002200084E08093650480E18093A50481E080935D
:100230000B0AFF91EF91BF91AF919F918F917F91A9
:100240006F915F914F913F912F910F900BBE0F9047
:100250000FBE0F901F901895E0E6F4E081E08183D7
:1002600082E0818384E081830E948E000E9492005C
:10027000789480E18093A504FFCFA29FB001B39F43
:10028000C001A39F700D811D1124911DB29F700D9F
:0C029000811D1124911D0895F894FFCFEA
:00000001FF
