:100000000C947A000C9484000C9484000C9484006A
:100010000C9484000C9484000C9484000C94840050
:100020000C9484000C9484000C9484000C94840040
:100030000C9484000C9484000C9484000C94840030
:100040000C9484000C9484000C9484000C94840020
:100050000C9484000C9484000C9484000C94840010
:100060000C9484000C9484000C9484000C94840000
:100070000C9484000C9484000C9484000C948400F0
:100080000C9484000C9484000C9484000C948400E0
:100090000C9484000C9484000C9484000C948400D0
:1000A0000C9484000C9484000C9484000C948400C0
:1000B0000C9484000C9484000C9484000C948400B0
:1000C0000C9484000C9484000C9484000C948400A0
:1000D0000C9484000C9484000C9484000C94840090
:1000E0000C9484000C9484000C9484000C94840080
:1000F0000C94840011241FBECFEFCDBFDFE7DEBF1D
:100100000E94F9000C942E010C94000080E1809371
:10011000A1040895FC0180E18093A50440E050E033
:1001200006C08DE08A95F1F700004F5F5F4F9F0199
:10013000ADECBCEC0E941F0196958795969587952E
:10014000969587954817590760F380E18093A60438
:1001500040E050E006C08DE08A95F1F700004F5F67
:100160005F4F20E23EE42E1B3F0BADECBCEC0E9447
:100170001F0196958795969587959695879548172B
:10018000590748F3089588EE93E00E948A00089585
:100190008CED95E00E948A00089580ED97E00E9422
:1001A0008A000895CF93DF93C8EED3E00AC0CE0152
:1001B0000E948A0087E893E10197F1F700C00000F0
:1001C0002A96C13D97E0D90790F3C0EDD7E00AC069
:1001D000CE010E948A0087E893E10197F1F700C001
:1001E00000002A97C83E93E0D90790F7DF91CF919E
:1001F00008950E9486000E94C8002FEF89E698E1CA
:10020000215080409040E1F700C000000E94C300F0
:100210002FEF89E698E1215080409040E1F700C03F
:1002200000000E94CD002FEF89E698E12150804028
:100230009040E1F700C000000E94D200FDCFA29FD5
:10024000B001B39FC001A39F700D811D1124911DAA
:10025000B29F700D811D1124911D0895F894FFCF58
:00000001FF
